{
  "contractName": "Gomoku",
  "abi": [
    {
      "constant": false,
      "inputs": [
        {
          "components": [
            {
              "name": "gameAdsress",
              "type": "address"
            },
            {
              "name": "mvIdx",
              "type": "uint32"
            },
            {
              "components": [
                {
                  "name": "x",
                  "type": "uint8"
                },
                {
                  "name": "y",
                  "type": "uint8"
                }
              ],
              "name": "moveCode",
              "type": "tuple"
            },
            {
              "name": "hashPrev",
              "type": "bytes32"
            },
            {
              "name": "hashGameState",
              "type": "bytes32"
            }
          ],
          "name": "move",
          "type": "tuple"
        },
        {
          "name": "_signature",
          "type": "bytes32"
        }
      ],
      "name": "play",
      "outputs": [],
      "payable": false,
      "stateMutability": "nonpayable",
      "type": "function"
    }
  ],
  "bytecode": "0x608060405234801561001057600080fd5b5061047b806100206000396000f3fe608060405260043610610041576000357c0100000000000000000000000000000000000000000000000000000000900463ffffffff168063b41778ad14610046575b600080fd5b34801561005257600080fd5b5061006d6004803603610068919081019061037f565b61006f565b005b6000610165600060a060405190810160405290816000820160009054906101000a900473ffffffffffffffffffffffffffffffffffffffff1673ffffffffffffffffffffffffffffffffffffffff1673ffffffffffffffffffffffffffffffffffffffff1681526020016000820160149054906101000a900463ffffffff1663ffffffff1663ffffffff168152602001600182016040805190810160405290816000820160009054906101000a900460ff1660ff1660ff1681526020016000820160019054906101000a900460ff1660ff1660ff168152505081526020016002820154815260200160038201548152505061024d565b9050826060015181141561024857826000808201518160000160006101000a81548173ffffffffffffffffffffffffffffffffffffffff021916908373ffffffffffffffffffffffffffffffffffffffff16021790555060208201518160000160146101000a81548163ffffffff021916908363ffffffff16021790555060408201518160010160008201518160000160006101000a81548160ff021916908360ff16021790555060208201518160000160016101000a81548160ff021916908360ff160217905550505060608201518160020155608082015181600301559050505b505050565b600081606001519050919050565b60006102678235610408565b905092915050565b600061027b823561041a565b905092915050565b60006040828403121561029557600080fd5b61029f60406103bb565b905060006102af8482850161036b565b60008301525060206102c38482850161036b565b60208301525092915050565b600060c082840312156102e157600080fd5b6102eb60a06103bb565b905060006102fb8482850161025b565b600083015250602061030f84828501610357565b602083015250604061032384828501610283565b60408301525060806103378482850161026f565b60608301525060a061034b8482850161026f565b60808301525092915050565b60006103638235610424565b905092915050565b60006103778235610434565b905092915050565b60008060e0838503121561039257600080fd5b60006103a0858286016102cf565b92505060c06103b18582860161026f565b9150509250929050565b6000604051905081810181811067ffffffffffffffff821117156103de57600080fd5b8060405250919050565b600073ffffffffffffffffffffffffffffffffffffffff82169050919050565b6000610413826103e8565b9050919050565b6000819050919050565b600063ffffffff82169050919050565b600060ff8216905091905056fea265627a7a7230582050edfec8066a55b8ca7c4a6a22c23012b4a84f5353cd9aa28b82dd5f28daea136c6578706572696d656e74616cf50037",
  "source": "pragma solidity ^0.5.0;\npragma experimental ABIEncoderV2; // for passing structs\n\ncontract Gomoku {\n    Move lastMove;\n\n    struct MoveCode {\n        uint8 x;\n        uint8 y;\n    }\n\n    struct Move {\n        address gameAdsress;\n        uint32 mvIdx;\n        MoveCode moveCode;\n        bytes32 hashPrev;\n        bytes32 hashGameState;\n    }\n\n    function hashMove(Move memory move) pure private returns(bytes32) {\n        // ???\n        return move.hashPrev;\n    }\n\n    function play(Move memory move, bytes32 _signature) public {\n        bytes32 lastHash = hashMove(lastMove);\n        if (lastHash == move.hashPrev) {\n            lastMove = move;\n        }\n    }\n}\n\n",
  "sourcePath": "/home/dawid/All/study/BlockChain/eth-gomoku/contracts/Gomoku.sol",
  "compiler": {
    "name": "solc",
    "version": "0.5.0+commit.1d4f565a.Emscripten.clang"
  },
  "schemaVersion": "3.0.1",
  "updatedAt": "2021-01-14T06:04:11.637Z",
  "devdoc": {
    "methods": {}
  },
  "userdoc": {
    "methods": {}
  }
}