{
  "contractName": "Gomoku",
  "abi": [
    {
      "inputs": [
        {
          "name": "_player0",
          "type": "address"
        },
        {
          "name": "_player1",
          "type": "address"
        }
      ],
      "payable": false,
      "stateMutability": "nonpayable",
      "type": "constructor"
    },
    {
      "constant": false,
      "inputs": [
        {
          "components": [
            {
              "name": "gameAdsress",
              "type": "address"
            },
            {
              "name": "mvIdx",
              "type": "uint32"
            },
            {
              "components": [
                {
                  "name": "x",
                  "type": "uint8"
                },
                {
                  "name": "y",
                  "type": "uint8"
                }
              ],
              "name": "moveCode",
              "type": "tuple"
            },
            {
              "name": "hashPrev",
              "type": "bytes32"
            },
            {
              "name": "hashGameState",
              "type": "bytes32"
            }
          ],
          "name": "move",
          "type": "tuple"
        },
        {
          "name": "_signature",
          "type": "bytes32"
        }
      ],
      "name": "play",
      "outputs": [],
      "payable": false,
      "stateMutability": "nonpayable",
      "type": "function"
    }
  ],
  "bytecode": "0x608060405234801561001057600080fd5b506040516040806106a8833981018060405261002f91908101906100cb565b816000806101000a81548173ffffffffffffffffffffffffffffffffffffffff021916908373ffffffffffffffffffffffffffffffffffffffff16021790555080600160006101000a81548173ffffffffffffffffffffffffffffffffffffffff021916908373ffffffffffffffffffffffffffffffffffffffff1602179055505050610139565b60006100c38251610127565b905092915050565b600080604083850312156100de57600080fd5b60006100ec858286016100b7565b92505060206100fd858286016100b7565b9150509250929050565b600073ffffffffffffffffffffffffffffffffffffffff82169050919050565b600061013282610107565b9050919050565b610560806101486000396000f3fe608060405260043610610041576000357c0100000000000000000000000000000000000000000000000000000000900463ffffffff168063b41778ad14610046575b600080fd5b34801561005257600080fd5b5061006d60048036036100689190810190610464565b61006f565b005b8160200151600060028263ffffffff1681151561008857fe5b0663ffffffff1614156100f5576000809054906101000a900473ffffffffffffffffffffffffffffffffffffffff1673ffffffffffffffffffffffffffffffffffffffff163373ffffffffffffffffffffffffffffffffffffffff161415156100f057600080fd5b610152565b600160009054906101000a900473ffffffffffffffffffffffffffffffffffffffff1673ffffffffffffffffffffffffffffffffffffffff163373ffffffffffffffffffffffffffffffffffffffff1614151561015157600080fd5b5b6000610248600260a060405190810160405290816000820160009054906101000a900473ffffffffffffffffffffffffffffffffffffffff1673ffffffffffffffffffffffffffffffffffffffff1673ffffffffffffffffffffffffffffffffffffffff1681526020016000820160149054906101000a900463ffffffff1663ffffffff1663ffffffff168152602001600182016040805190810160405290816000820160009054906101000a900460ff1660ff1660ff1681526020016000820160019054906101000a900460ff1660ff1660ff1681525050815260200160028201548152602001600382015481525050610332565b9050836060015181141561032c5783600260008201518160000160006101000a81548173ffffffffffffffffffffffffffffffffffffffff021916908373ffffffffffffffffffffffffffffffffffffffff16021790555060208201518160000160146101000a81548163ffffffff021916908363ffffffff16021790555060408201518160010160008201518160000160006101000a81548160ff021916908360ff16021790555060208201518160000160016101000a81548160ff021916908360ff160217905550505060608201518160020155608082015181600301559050505b50505050565b600081606001519050919050565b600061034c82356104ed565b905092915050565b600061036082356104ff565b905092915050565b60006040828403121561037a57600080fd5b61038460406104a0565b9050600061039484828501610450565b60008301525060206103a884828501610450565b60208301525092915050565b600060c082840312156103c657600080fd5b6103d060a06104a0565b905060006103e084828501610340565b60008301525060206103f48482850161043c565b602083015250604061040884828501610368565b604083015250608061041c84828501610354565b60608301525060a061043084828501610354565b60808301525092915050565b60006104488235610509565b905092915050565b600061045c8235610519565b905092915050565b60008060e0838503121561047757600080fd5b6000610485858286016103b4565b92505060c061049685828601610354565b9150509250929050565b6000604051905081810181811067ffffffffffffffff821117156104c357600080fd5b8060405250919050565b600073ffffffffffffffffffffffffffffffffffffffff82169050919050565b60006104f8826104cd565b9050919050565b6000819050919050565b600063ffffffff82169050919050565b600060ff8216905091905056fea265627a7a72305820ac5b6da18ea89aed12c8cfaee6b455561dd68305de57ffb8464554fd202e80066c6578706572696d656e74616cf50037",
  "source": "pragma solidity ^0.5.0;\npragma experimental ABIEncoderV2; // for passing structs\n\ncontract Gomoku {\n    address player0;\n    address player1;\n\n    Move lastMove;\n\n    constructor(address _player0, address _player1) public {\n        player0 = _player0;\n        player1 = _player1;\n    }\n\n    modifier playerOnly(uint32 _n) {\n        if (_n % 2 == 0)\n            require(msg.sender == player0);\n        else\n            require(msg.sender == player1);\n        _;\n    }\n\n    struct MoveCode {\n        uint8 x;\n        uint8 y;\n    }\n\n    struct Move {\n        address gameAdsress;\n        uint32 mvIdx;\n        MoveCode moveCode;\n        bytes32 hashPrev;\n        bytes32 hashGameState;\n    }\n\n    function hashMove(Move memory move) pure private returns(bytes32) {\n        // ???\n        return move.hashPrev;\n    }\n\n    function play(Move memory move, bytes32 _signature) public playerOnly(move.mvIdx) {\n        bytes32 lastHash = hashMove(lastMove);\n        if (lastHash == move.hashPrev) {\n            lastMove = move;\n        }\n    }\n}\n\n",
  "sourcePath": "/home/dawid/All/study/BlockChain/eth-gomoku/contracts/Gomoku.sol",
  "compiler": {
    "name": "solc",
    "version": "0.5.0+commit.1d4f565a.Emscripten.clang"
  },
  "schemaVersion": "3.0.1",
  "updatedAt": "2021-01-14T06:05:15.986Z",
  "devdoc": {
    "methods": {}
  },
  "userdoc": {
    "methods": {}
  }
}