{
  "contractName": "Gomoku",
  "abi": [
    {
      "constant": true,
      "inputs": [],
      "name": "dummy",
      "outputs": [
        {
          "name": "",
          "type": "uint256"
        }
      ],
      "payable": false,
      "stateMutability": "view",
      "type": "function",
      "signature": "0x32e43a11"
    }
  ],
  "bytecode": "0x608060405260008055348015601357600080fd5b50609e806100226000396000f3fe608060405260043610603f576000357c0100000000000000000000000000000000000000000000000000000000900463ffffffff16806332e43a11146044575b600080fd5b348015604f57600080fd5b506056606c565b6040518082815260200191505060405180910390f35b6000548156fea165627a7a72305820fedb793c7d812609cacf327c3cf6ca0f68cd94608831ef9ead0ece5979b620470029",
  "source": "pragma solidity ^0.5.0;\n\ncontract Gomoku {\n    uint public dummy = 0;\n\n}\n\n",
  "sourcePath": "/home/dawid/All/study/BlockChain/eth-gomoku/contracts/Gomoku.sol",
  "compiler": {
    "name": "solc",
    "version": "0.5.0+commit.1d4f565a.Emscripten.clang"
  },
  "schemaVersion": "3.0.1",
  "updatedAt": "2021-01-11T05:05:39.761Z",
  "devdoc": {
    "methods": {}
  },
  "userdoc": {
    "methods": {}
  }
}